:020000001028C6
:10000800803120007F08FB00911D0C289111F422FB
:100018007B082000FF0009001128FC01FD012030A9
:100028008400003085001D306A252000962C2000B1
:10003800C900F1307C02031C2528F030C6004608B0
:10004800FC00F1307D02031C2D28F030C600460864
:10005800FD00C908031D3628FC08031DC128FD083A
:10006800031DC128490803193A28AF0103302F029C
:10007800031CAF2832303902031CAF2832303A0251
:10008800031CAF282F08FF3EC6004608D30053368E
:10009800C6004608D30032302F0203187D285308C3
:1000A800370203185B2853083802031C6228023001
:1000B800AA00C6004608A9003015311553083502B4
:1000C80003186A2853083602031C71280130AA0055
:1000D800C6004608A9003015311553083402031C20
:1000E800A6280330AA00C6004608A9003015311515
:1000F800A628530837020318852853083802031C1A
:100108008C280730AA00C6004608A9003016311608
:10011800530835020318942853083602031C9B28F9
:100128000630AA00C6004608A90030163116530842
:100138003402031CA6280830AA00C6004608A900F5
:1001480030163116300814390319AF282F08AC00BF
:10015800C6004608AB00FD01FC01BA01B901A601C1
:10016800A501A201A301A001A101AF01B701B50139
:10017800B401B801B601AE0108007C0839020318C1
:10018800C9287C08C6004608B9007D083A02031849
:10019800D1287D08C6004608BA007C082007A000C0
:1001A80021080318210AA1002508C600C701C609AD
:1001B800C709C60A0319C70A20084607A00021086C
:1001C800473DA1002108C7002008C600C736C60C55
:1001D800C736C60C4608C8004808A5007D0822078F
:1001E800A20023080318230AA3002608C600C70193
:1001F800C609C709C60A0319C70A22084607A20082
:100208002308473DA3002308C7002208C600C736B5
:10021800C60CC736C60C4608C8004808A6002209FE
:10022800C6002309C700C60A0319C70A20084607DB
:10023800CA002108473DCB004B08C7004A08C60042
:100248000530C635C70D890B25294608CA00470859
:10025800CB0020082207CC002108233DCD004D0803
:10026800C7004C08C600470DC70CC60C470DC70C85
:10027800C60C4608CC004708CD004D08BE01BE0795
:100288004C08BD01BD074B08C001C0074A08BF01A3
:10029800BF07422420003E08D201D2073D08D10101
:1002A800D1075208803AFF0080307F02031D5E2983
:1002B80080305102031C65297F302000D1000030B6
:1002C800752920005208803AFF007F307F02031D05
:1002D8006F29813051020318762981302000D1001E
:1002E800FF30D20020002F080319AF293B03FF3A43
:1002F8005107C6004608D0005008803A7F3E031CCC
:1003080089290130C6004608B5075008803A7E3E64
:10031800031C92290130C6004608B6075008803AE7
:100328007F3E03189B290130C6004608B707D01F37
:10033800A1290130C6004608B8075008803A813E16
:10034800031CAF295008803A7E3E0318AF290130BC
:10035800C6004608B4075108C6004608BB00FA3074
:100368002F020318BB290130C6004608AF07520800
:10037800803AFF0080307F02031DC4297930510282
:10038800031CCB2978302000D1000030DB29200065
:100398005208803AFF007F307F02031DD52988303C
:1003A80051020318DC2988302000D100FF30D20028
:1003B80020005108783EC6004608B20026082502EB
:1003C8000318E8292603E9292503FF3AF03EC60069
:1003D8004608B3007C08C600C7014608CE00470897
:1003E800CF007D08C600C7014608CE074708CF3DA5
:1003F8002508C600C7014608CE024708CF3B260895
:10040800C600C7014608CE024708CF3BCF1F112AB6
:10041800CE09CF09CE0A0319CF0A4F08803AFF0048
:1004280080307F02031D1A2A65304E02031C212AE0
:1004380064302000CE000030CF0020004F08803A02
:10044800FF0080307F02031D2B2A0A304E0203185A
:100458004C2A20003B08803AB13E031C4C2A3B083A
:10046800803A4E3E03184C2A33302E02031C472A8A
:100478003C302E0203184E2A3C30C6004608AE0017
:10048800B015B1154E2A0130C6004608AE074E2AEF
:100498002000AE013014311408002000311CD62A87
:1004A800FE30BD003D08B1057C087D07BD00BE01DA
:1004B800BE0D3E08803AFF0080307F02031D662A89
:1004C8000A303D02031C7A2A2000111E682AFE30D9
:1004D80023009A002000111E6E2A7C0823009A002F
:1004E8002000111E742A7D0823009A007C087D07CD
:1004F8002000BD00BE01BE0D3E08803AFF008030DE
:100508007F02031D892A0A303D02031CA82A200005
:1005180025082607BD00BE01BE0D3E08803AFF0033
:1005280080307F02031D9A2A0A303D02031CA82A44
:100538002000111E9C2AFA3023009A002000111E68
:10054800A22A320823009A00473020003202031CF6
:10055800BC2AAA3032020318BC2A111EB12AFB3069
:1005680023009A002000111EB62A330823009A009F
:100578002000B11DD32AF730BD003D08B105111E7A
:10058800C32AFC3023009A002000111EC82A053017
:1005980023009A002000111ECE2A23009A01200071
:1005A800BC010800BC08031D0800111ED92AFC3034
:1005B80023009A002000111EDE2A2A0823009A0030
:1005C8002000111EE42A2C0823009A002000111E86
:1005D800EA2AFF3023009A002000BC01BC0A080068
:1005E80024001408F4007408FA0020002D08063AC4
:1005F800031D0B2B7A1E042B240017132000AD01BA
:1006080024001108F4007408F60015130800FA1EF7
:100618007A1C292B24001108F4007408F7007A1DAD
:10062800252B200024088823F4007408F800780893
:100638002400910015160430F40074082000AD0061
:1006480008002000AD01AD0A0800FA1E722B7A18C6
:10065800662B722B24001108F40074082000A400F3
:100668002400961215160330F40074082000AD001B
:10067800080024001108F4007408F9007908F4004F
:100688007408F000200024081525F500F50EF50D76
:10069800240016087506DF39750696001516080039
:1006A80055302400910015160430F4007408200019
:1006B800AD000800240017170630F4007408200065
:1006C800AD0008002D08013A03192E2B033A03192F
:1006D800542B013A03193D2B5E2B08002D08043AD0
:1006E800031D7B2B0230F4007408AD0008002D08B0
:1006F800053A031D08002400961215160330F4006D
:1007080074082000AD000800F100BF2B200030085D
:10071800F0007008F2008030F0007008B0068030F9
:10072800F0007008B005E52B20002808B62B200043
:100738002708B62B20002908F0007008F200A9014C
:10074800E52B20002B08F0007008F200AB01E52B28
:10075800BD2B20003208B62B20003308B62B7C08AE
:10076800B62B7D08F0007008F200E52BF201F20AC2
:10077800E52BF201E52B7108003A03198A2B013A9F
:100788000319982B033A03199B2B063A03199E2B3E
:10079800013A0319A52B033A0319AC2B0E3A031996
:1007A800AD2B023A0319B02B063A0319B32B013AC1
:1007B8000319B52BF33A0319BA2B013A0319BA2BCB
:1007C800BD2B720808002000C100220099012000FA
:1007D80041080319F22BFD010C16F42BFC018C16B1
:1007E800C2014208FF3A03193D2C4208BD00BE0170
:1007F800BD09BE09BD0A0319BE0A3D08FF3EBF0078
:1008080000303E3DC000400DC00CBF0C400DC00C78
:10081800BF0C400DC00CBF0C3F08220099002000FF
:100828000C19222C410803191E2C0130BD003D086B
:10083800FD07222C0130BD003D08FC070000000028
:1008480000000000000000000000000000000000A0
:100858000000000000000000000000000000000090
:1008680001302000BD003D08C2074208FF3A031DC1
:10087800F92B8C120C122200990108002000C301E8
:10088800BE1F4D2CBD09BE09BD0A0319BE0AC3010E
:10089800C30AC01F582CBF09C009BF0A0319C00AE0
:1008A8000130C1004108C306C401C5013E083D042A
:1008B8000319872CC201C20ABE1B6C2C0130BD353E
:1008C800BE0D890B632C0130C1004108C207602CA2
:1008D8000130C435C50D890B6D2C3E084002031D3F
:1008E800772C3D083F02031C7E2C3D08BF023E08C2
:1008F800C03B44140130BE36BD0C890B7F2C01303F
:10090800C202031D6C2C430803198F2CC409C509A6
:10091800C40A0319C50A4508BE01BE074408BD013B
:10092800BD0708007230210099001A1E992CD424A2
:10093800482561255525F52401301B202000B101EB
:10094800B001B301B2018130D4005408A7000B17DD
:100958008B170030E72320000C1664303125013056
:10096800E72320008C1600301B2020003008D4001C
:100978005408D500301CC42C0330D4005408D504C6
:10098800271BCA2C550828050319CD2C271CCF2C4A
:10099800D12C271CD12C8C10D22C8C145122AD2C8C
:1009A80023008C018E0121009C019B0120009811DD
:1009B800980124008C0120008C018E0124009501EF
:1009C800970194012500930122009D018C010C30B0
:1009D80021008C00103022008E001B3021008E0078
:1009E800080024009501960197011508F03906388A
:1009F80095001516171620008E1D042D2230052D82
:100A0800203024009200FF3093003F302000BD00CA
:100A18003D08240094059516200091112100911598
:100A28000800F200272D7008F10071082000A800C6
:100A3800222D7008F10071082000A700F3012F2D66
:100A4800F301F30A2F2D7208013A0319172D033AFF
:100A580003191D2D242D730808002000BE00BF01B6
:100A68003E083F02031808000000000000000000D4
:100A7800000000000000000000000000013020001D
:100A8800BD003D08BF07342D343020009B000430E2
:100A98009C001A30250091001C3093001610961502
:100AA800080023009E019D019F019D171E159F159B
:100AB8009C0110309B009E160800220097019801A7
:100AC80099011F309904981798160800640080014E
:080AD8000131890B6B2D003484
:020000040001F9
:04000E0064C8FFFEC5
:00000001FF
